{
  "_format": "hh-sol-artifact-1",
  "contractName": "Twitter",
  "sourceName": "contracts/Twitter.sol",
  "abi": [
    {
      "inputs": [],
      "stateMutability": "nonpayable",
      "type": "constructor"
    },
    {
      "anonymous": false,
      "inputs": [
        {
          "indexed": false,
          "internalType": "string",
          "name": "_image_url",
          "type": "string"
        },
        {
          "indexed": false,
          "internalType": "string",
          "name": "_tweet_msg",
          "type": "string"
        },
        {
          "indexed": false,
          "internalType": "string",
          "name": "_username",
          "type": "string"
        }
      ],
      "name": "addTweetEvent",
      "type": "event"
    },
    {
      "anonymous": false,
      "inputs": [
        {
          "indexed": false,
          "internalType": "uint256",
          "name": "_uid",
          "type": "uint256"
        }
      ],
      "name": "addTweetToVote",
      "type": "event"
    },
    {
      "anonymous": false,
      "inputs": [
        {
          "indexed": false,
          "internalType": "uint256",
          "name": "_uid",
          "type": "uint256"
        }
      ],
      "name": "removalVote",
      "type": "event"
    },
    {
      "anonymous": false,
      "inputs": [
        {
          "indexed": false,
          "internalType": "uint256",
          "name": "_uid",
          "type": "uint256"
        }
      ],
      "name": "removedTweet",
      "type": "event"
    },
    {
      "inputs": [
        {
          "internalType": "uint256",
          "name": "_uid",
          "type": "uint256"
        },
        {
          "internalType": "string",
          "name": "_comment_msg",
          "type": "string"
        }
      ],
      "name": "addComment",
      "outputs": [],
      "stateMutability": "nonpayable",
      "type": "function"
    },
    {
      "inputs": [
        {
          "internalType": "uint256",
          "name": "_uid",
          "type": "uint256"
        },
        {
          "internalType": "uint256",
          "name": "_days",
          "type": "uint256"
        }
      ],
      "name": "addPostToVote",
      "outputs": [],
      "stateMutability": "nonpayable",
      "type": "function"
    },
    {
      "inputs": [
        {
          "internalType": "string",
          "name": "_image_url",
          "type": "string"
        },
        {
          "internalType": "string",
          "name": "_tweet_msg",
          "type": "string"
        },
        {
          "internalType": "string",
          "name": "_username",
          "type": "string"
        }
      ],
      "name": "addTweet",
      "outputs": [],
      "stateMutability": "nonpayable",
      "type": "function"
    },
    {
      "inputs": [
        {
          "internalType": "uint256",
          "name": "_uid",
          "type": "uint256"
        }
      ],
      "name": "checkIfAlreadyReported",
      "outputs": [],
      "stateMutability": "nonpayable",
      "type": "function"
    },
    {
      "inputs": [],
      "name": "count",
      "outputs": [
        {
          "internalType": "uint256",
          "name": "",
          "type": "uint256"
        }
      ],
      "stateMutability": "view",
      "type": "function"
    },
    {
      "inputs": [
        {
          "internalType": "uint256",
          "name": "_uid",
          "type": "uint256"
        }
      ],
      "name": "getComment",
      "outputs": [
        {
          "components": [
            {
              "internalType": "string",
              "name": "comment_msg",
              "type": "string"
            },
            {
              "internalType": "address",
              "name": "owner_comment",
              "type": "address"
            }
          ],
          "internalType": "struct Twitter.Comment[]",
          "name": "",
          "type": "tuple[]"
        }
      ],
      "stateMutability": "view",
      "type": "function"
    },
    {
      "inputs": [
        {
          "internalType": "uint256",
          "name": "_uid",
          "type": "uint256"
        }
      ],
      "name": "getLikesOfPost",
      "outputs": [
        {
          "internalType": "uint256",
          "name": "",
          "type": "uint256"
        }
      ],
      "stateMutability": "view",
      "type": "function"
    },
    {
      "inputs": [
        {
          "internalType": "uint256",
          "name": "_uid",
          "type": "uint256"
        }
      ],
      "name": "getResultsOfTweet",
      "outputs": [],
      "stateMutability": "nonpayable",
      "type": "function"
    },
    {
      "inputs": [],
      "name": "getTweets",
      "outputs": [
        {
          "components": [
            {
              "internalType": "uint256",
              "name": "uid",
              "type": "uint256"
            },
            {
              "internalType": "string",
              "name": "image_url",
              "type": "string"
            },
            {
              "internalType": "string",
              "name": "tweet_msg",
              "type": "string"
            },
            {
              "internalType": "uint256",
              "name": "timestamp",
              "type": "uint256"
            },
            {
              "internalType": "address",
              "name": "owner",
              "type": "address"
            },
            {
              "internalType": "string",
              "name": "userName",
              "type": "string"
            }
          ],
          "internalType": "struct Twitter.Tweet[]",
          "name": "",
          "type": "tuple[]"
        }
      ],
      "stateMutability": "view",
      "type": "function"
    },
    {
      "inputs": [],
      "name": "getUserLikes",
      "outputs": [
        {
          "internalType": "uint256[]",
          "name": "",
          "type": "uint256[]"
        }
      ],
      "stateMutability": "view",
      "type": "function"
    },
    {
      "inputs": [],
      "name": "getUserTweets",
      "outputs": [
        {
          "components": [
            {
              "internalType": "uint256",
              "name": "uid",
              "type": "uint256"
            },
            {
              "internalType": "string",
              "name": "image_url",
              "type": "string"
            },
            {
              "internalType": "string",
              "name": "tweet_msg",
              "type": "string"
            },
            {
              "internalType": "uint256",
              "name": "timestamp",
              "type": "uint256"
            },
            {
              "internalType": "address",
              "name": "owner",
              "type": "address"
            },
            {
              "internalType": "string",
              "name": "userName",
              "type": "string"
            }
          ],
          "internalType": "struct Twitter.Tweet[]",
          "name": "",
          "type": "tuple[]"
        }
      ],
      "stateMutability": "view",
      "type": "function"
    },
    {
      "inputs": [],
      "name": "getVotingTweets",
      "outputs": [
        {
          "internalType": "uint256[]",
          "name": "",
          "type": "uint256[]"
        }
      ],
      "stateMutability": "view",
      "type": "function"
    },
    {
      "inputs": [
        {
          "internalType": "uint256",
          "name": "_uid",
          "type": "uint256"
        }
      ],
      "name": "likeTheTweet",
      "outputs": [],
      "stateMutability": "nonpayable",
      "type": "function"
    },
    {
      "inputs": [],
      "name": "owner",
      "outputs": [
        {
          "internalType": "address payable",
          "name": "",
          "type": "address"
        }
      ],
      "stateMutability": "view",
      "type": "function"
    },
    {
      "inputs": [
        {
          "internalType": "uint256",
          "name": "",
          "type": "uint256"
        }
      ],
      "name": "tweets",
      "outputs": [
        {
          "internalType": "uint256",
          "name": "uid",
          "type": "uint256"
        },
        {
          "internalType": "string",
          "name": "image_url",
          "type": "string"
        },
        {
          "internalType": "string",
          "name": "tweet_msg",
          "type": "string"
        },
        {
          "internalType": "uint256",
          "name": "timestamp",
          "type": "uint256"
        },
        {
          "internalType": "address",
          "name": "owner",
          "type": "address"
        },
        {
          "internalType": "string",
          "name": "userName",
          "type": "string"
        }
      ],
      "stateMutability": "view",
      "type": "function"
    },
    {
      "inputs": [
        {
          "internalType": "uint256",
          "name": "_uid",
          "type": "uint256"
        },
        {
          "internalType": "bool",
          "name": "removal",
          "type": "bool"
        }
      ],
      "name": "voteForRemoval",
      "outputs": [],
      "stateMutability": "nonpayable",
      "type": "function"
    }
  ],
  "bytecode": "0x60806040526001805534801561001457600080fd5b50336000806101000a81548173ffffffffffffffffffffffffffffffffffffffff021916908373ffffffffffffffffffffffffffffffffffffffff160217905550612b76806100646000396000f3fe608060405234801561001057600080fd5b50600436106101005760003560e01c80639be69d6c11610097578063e7e38d8c11610066578063e7e38d8c14610287578063e8d857b0146102a3578063e9f4fed3146102d8578063fc86741f146102f457610100565b80639be69d6c146102015780639c65609b14610231578063aa7e56831461024f578063e3303ae11461026b57610100565b8063731903ff116100d3578063731903ff1461018b578063731a4618146101a957806379de8761146101c75780638da5cb5b146101e357610100565b806306661abd146101055780630800e300146101235780634b96a07d146101535780634c595c8a1461016f575b600080fd5b61010d610312565b60405161011a91906119e1565b60405180910390f35b61013d60048036038101906101389190611a3c565b610318565b60405161014a9190611c39565b60405180910390f35b61016d60048036038101906101689190611a3c565b610472565b005b61018960048036038101906101849190611a3c565b610506565b005b610193610876565b6040516101a09190611dc3565b60405180910390f35b6101b1610b32565b6040516101be9190611e94565b60405180910390f35b6101e160048036038101906101dc9190611eb6565b610b8a565b005b6101eb610d11565b6040516101f89190611f17565b60405180910390f35b61021b60048036038101906102169190611a3c565b610d35565b60405161022891906119e1565b60405180910390f35b610239610d52565b6040516102469190611e94565b60405180910390f35b61026960048036038101906102649190612067565b610de7565b005b61028560048036038101906102809190611a3c565b610eb7565b005b6102a1600480360381019061029c91906120c3565b610fc7565b005b6102bd60048036038101906102b89190611a3c565b6112f3565b6040516102cf969594939291906121c3565b60405180910390f35b6102f260048036038101906102ed9190612271565b6114e7565b005b6102fc6116ec565b6040516103099190611dc3565b60405180910390f35b60015481565b606060026000838152602001908152602001600020805480602002602001604051908101604052809291908181526020016000905b828210156104675783829060005260206000209060020201604051806040016040529081600082018054610380906122e0565b80601f01602080910402602001604051908101604052809291908181526020018280546103ac906122e0565b80156103f95780601f106103ce576101008083540402835291602001916103f9565b820191906000526020600020905b8154815290600101906020018083116103dc57829003601f168201915b505050505081526020016001820160009054906101000a900473ffffffffffffffffffffffffffffffffffffffff1673ffffffffffffffffffffffffffffffffffffffff1673ffffffffffffffffffffffffffffffffffffffff16815250508152602001906001019061034d565b505050509050919050565b600460003373ffffffffffffffffffffffffffffffffffffffff1673ffffffffffffffffffffffffffffffffffffffff16815260200190815260200160002081908060018154018082558091505060019003906000526020600020016000909190919091505560016003600083815260200190815260200160002060008282546104fc9190612340565b9250508190555050565b60008054906101000a900473ffffffffffffffffffffffffffffffffffffffff1673ffffffffffffffffffffffffffffffffffffffff163373ffffffffffffffffffffffffffffffffffffffff1614610594576040517f08c379a000000000000000000000000000000000000000000000000000000000815260040161058b906123c0565b60405180910390fd5b42600e600083815260200190815260200160002054106105e9576040517f08c379a00000000000000000000000000000000000000000000000000000000081526004016105e09061242c565b60405180910390fd5b6006805490508110610630576040517f08c379a000000000000000000000000000000000000000000000000000000000815260040161062790612498565b60405180910390fd5b60006009600083815260200190815260200160002054600a6000848152602001908152602001600020546106649190612340565b90506000606482600960008681526020019081526020016000205461068991906124e7565b6106939190612518565b905060328111156108715760008390505b60016006805490506106b6919061255a565b8110156107dd5760066001826106cc9190612340565b815481106106dd576106dc61258e565b5b9060005260206000209060060201600682815481106106ff576106fe61258e565b5b9060005260206000209060060201600082015481600001556001820181600101908161072b919061277f565b5060028201816002019081610740919061277f565b50600382015481600301556004820160009054906101000a900473ffffffffffffffffffffffffffffffffffffffff168160040160006101000a81548173ffffffffffffffffffffffffffffffffffffffff021916908373ffffffffffffffffffffffffffffffffffffffff160217905550600582018160050190816107c6919061277f565b5090505080806107d590612867565b9150506106a4565b5060068054806107f0576107ef6128af565b5b600190038181906000526020600020906006020160008082016000905560018201600061081d919061196b565b60028201600061082d919061196b565b60038201600090556004820160006101000a81549073ffffffffffffffffffffffffffffffffffffffff021916905560058201600061086c919061196b565b505090555b505050565b6060600560003373ffffffffffffffffffffffffffffffffffffffff1673ffffffffffffffffffffffffffffffffffffffff168152602001908152602001600020805480602002602001604051908101604052809291908181526020016000905b82821015610b2957838290600052602060002090600602016040518060c001604052908160008201548152602001600182018054610914906122e0565b80601f0160208091040260200160405190810160405280929190818152602001828054610940906122e0565b801561098d5780601f106109625761010080835404028352916020019161098d565b820191906000526020600020905b81548152906001019060200180831161097057829003601f168201915b505050505081526020016002820180546109a6906122e0565b80601f01602080910402602001604051908101604052809291908181526020018280546109d2906122e0565b8015610a1f5780601f106109f457610100808354040283529160200191610a1f565b820191906000526020600020905b815481529060010190602001808311610a0257829003601f168201915b50505050508152602001600382015481526020016004820160009054906101000a900473ffffffffffffffffffffffffffffffffffffffff1673ffffffffffffffffffffffffffffffffffffffff1673ffffffffffffffffffffffffffffffffffffffff168152602001600582018054610a98906122e0565b80601f0160208091040260200160405190810160405280929190818152602001828054610ac4906122e0565b8015610b115780601f10610ae657610100808354040283529160200191610b11565b820191906000526020600020905b815481529060010190602001808311610af457829003601f168201915b505050505081525050815260200190600101906108d7565b50505050905090565b60606008805480602002602001604051908101604052809291908181526020018280548015610b8057602002820191906000526020600020905b815481526020019060010190808311610b6c575b5050505050905090565b60008054906101000a900473ffffffffffffffffffffffffffffffffffffffff1673ffffffffffffffffffffffffffffffffffffffff163373ffffffffffffffffffffffffffffffffffffffff1614610c18576040517f08c379a0000000000000000000000000000000000000000000000000000000008152600401610c0f906123c0565b60405180910390fd5b600060096000848152602001908152602001600020819055506000600a600084815260200190815260200160002081905550600882908060018154018082558091505060019003906000526020600020016000909190919091505560006201518082610c849190612518565b42610c8f9190612340565b905080600e6000858152602001908152602001600020819055506001600d600085815260200190815260200160002060006101000a81548160ff0219169083151502179055507f111a5fd8a3410660823f27ef8728798d17be388e27b912bbf1ad3f0010d0a00583604051610d0491906119e1565b60405180910390a1505050565b60008054906101000a900473ffffffffffffffffffffffffffffffffffffffff1681565b600060036000838152602001908152602001600020549050919050565b6060600460003373ffffffffffffffffffffffffffffffffffffffff1673ffffffffffffffffffffffffffffffffffffffff168152602001908152602001600020805480602002602001604051908101604052809291908181526020018280548015610ddd57602002820191906000526020600020905b815481526020019060010190808311610dc9575b5050505050905090565b600060405180604001604052808381526020013373ffffffffffffffffffffffffffffffffffffffff168152509050600260008481526020019081526020016000208190806001815401808255809150506001900390600052602060002090600202016000909190919091506000820151816000019081610e6891906128de565b5060208201518160010160006101000a81548173ffffffffffffffffffffffffffffffffffffffff021916908373ffffffffffffffffffffffffffffffffffffffff1602179055505050505050565b60001515600c60003373ffffffffffffffffffffffffffffffffffffffff1673ffffffffffffffffffffffffffffffffffffffff168152602001908152602001600020600083815260200190815260200160002060009054906101000a900460ff16151514610f5b576040517f08c379a0000000000000000000000000000000000000000000000000000000008152600401610f52906129fc565b60405180910390fd5b6001600c60003373ffffffffffffffffffffffffffffffffffffffff1673ffffffffffffffffffffffffffffffffffffffff168152602001908152602001600020600083815260200190815260200160002060006101000a81548160ff02191690831515021790555050565b60006040518060c0016040528060015481526020018581526020018481526020014281526020013373ffffffffffffffffffffffffffffffffffffffff1681526020018381525090508060076000600154815260200190815260200160002060008201518160000155602082015181600101908161104591906128de565b50604082015181600201908161105b91906128de565b506060820151816003015560808201518160040160006101000a81548173ffffffffffffffffffffffffffffffffffffffff021916908373ffffffffffffffffffffffffffffffffffffffff16021790555060a08201518160050190816110c291906128de565b50905050600681908060018154018082558091505060019003906000526020600020906006020160009091909190915060008201518160000155602082015181600101908161111191906128de565b50604082015181600201908161112791906128de565b506060820151816003015560808201518160040160006101000a81548173ffffffffffffffffffffffffffffffffffffffff021916908373ffffffffffffffffffffffffffffffffffffffff16021790555060a082015181600501908161118e91906128de565b505050600560003373ffffffffffffffffffffffffffffffffffffffff1673ffffffffffffffffffffffffffffffffffffffff16815260200190815260200160002081908060018154018082558091505060019003906000526020600020906006020160009091909190915060008201518160000155602082015181600101908161121991906128de565b50604082015181600201908161122f91906128de565b506060820151816003015560808201518160040160006101000a81548173ffffffffffffffffffffffffffffffffffffffff021916908373ffffffffffffffffffffffffffffffffffffffff16021790555060a082015181600501908161129691906128de565b5050507fb232d1b4d1fb0eca075f24342ca0d53b5159d78f2571e79d28d6172cfe0ad0308484846040516112cc93929190612a1c565b60405180910390a160018060008282546112e69190612340565b9250508190555050505050565b600760205280600052604060002060009150905080600001549080600101805461131c906122e0565b80601f0160208091040260200160405190810160405280929190818152602001828054611348906122e0565b80156113955780601f1061136a57610100808354040283529160200191611395565b820191906000526020600020905b81548152906001019060200180831161137857829003601f168201915b5050505050908060020180546113aa906122e0565b80601f01602080910402602001604051908101604052809291908181526020018280546113d6906122e0565b80156114235780601f106113f857610100808354040283529160200191611423565b820191906000526020600020905b81548152906001019060200180831161140657829003601f168201915b5050505050908060030154908060040160009054906101000a900473ffffffffffffffffffffffffffffffffffffffff1690806005018054611464906122e0565b80601f0160208091040260200160405190810160405280929190818152602001828054611490906122e0565b80156114dd5780601f106114b2576101008083540402835291602001916114dd565b820191906000526020600020905b8154815290600101906020018083116114c057829003601f168201915b5050505050905086565b60001515600b60003373ffffffffffffffffffffffffffffffffffffffff1673ffffffffffffffffffffffffffffffffffffffff168152602001908152602001600020600084815260200190815260200160002060009054906101000a900460ff1615151461158b576040517f08c379a000000000000000000000000000000000000000000000000000000000815260040161158290612ab4565b60405180910390fd5b42600e600084815260200190815260200160002054116115e0576040517f08c379a00000000000000000000000000000000000000000000000000000000081526004016115d790612b20565b60405180910390fd5b6001600b60003373ffffffffffffffffffffffffffffffffffffffff1673ffffffffffffffffffffffffffffffffffffffff168152602001908152602001600020600084815260200190815260200160002060006101000a81548160ff02191690831515021790555060011515811515036116855760016009600084815260200190815260200160002060008282546116799190612340565b925050819055506116b1565b6001600a600084815260200190815260200160002060008282546116a99190612340565b925050819055505b7f47b0e1c72fc6aaca754df96602674a35dd19848639524c43427c2cc0bdb243e6826040516116e091906119e1565b60405180910390a15050565b60606006805480602002602001604051908101604052809291908181526020016000905b8282101561196257838290600052602060002090600602016040518060c00160405290816000820154815260200160018201805461174d906122e0565b80601f0160208091040260200160405190810160405280929190818152602001828054611779906122e0565b80156117c65780601f1061179b576101008083540402835291602001916117c6565b820191906000526020600020905b8154815290600101906020018083116117a957829003601f168201915b505050505081526020016002820180546117df906122e0565b80601f016020809104026020016040519081016040528092919081815260200182805461180b906122e0565b80156118585780601f1061182d57610100808354040283529160200191611858565b820191906000526020600020905b81548152906001019060200180831161183b57829003601f168201915b50505050508152602001600382015481526020016004820160009054906101000a900473ffffffffffffffffffffffffffffffffffffffff1673ffffffffffffffffffffffffffffffffffffffff1673ffffffffffffffffffffffffffffffffffffffff1681526020016005820180546118d1906122e0565b80601f01602080910402602001604051908101604052809291908181526020018280546118fd906122e0565b801561194a5780601f1061191f5761010080835404028352916020019161194a565b820191906000526020600020905b81548152906001019060200180831161192d57829003601f168201915b50505050508152505081526020019060010190611710565b50505050905090565b508054611977906122e0565b6000825580601f1061198957506119a8565b601f0160209004906000526020600020908101906119a791906119ab565b5b50565b5b808211156119c45760008160009055506001016119ac565b5090565b6000819050919050565b6119db816119c8565b82525050565b60006020820190506119f660008301846119d2565b92915050565b6000604051905090565b600080fd5b600080fd5b611a19816119c8565b8114611a2457600080fd5b50565b600081359050611a3681611a10565b92915050565b600060208284031215611a5257611a51611a06565b5b6000611a6084828501611a27565b91505092915050565b600081519050919050565b600082825260208201905092915050565b6000819050602082019050919050565b600081519050919050565b600082825260208201905092915050565b60005b83811015611acf578082015181840152602081019050611ab4565b60008484015250505050565b6000601f19601f8301169050919050565b6000611af782611a95565b611b018185611aa0565b9350611b11818560208601611ab1565b611b1a81611adb565b840191505092915050565b600073ffffffffffffffffffffffffffffffffffffffff82169050919050565b6000611b5082611b25565b9050919050565b611b6081611b45565b82525050565b60006040830160008301518482036000860152611b838282611aec565b9150506020830151611b986020860182611b57565b508091505092915050565b6000611baf8383611b66565b905092915050565b6000602082019050919050565b6000611bcf82611a69565b611bd98185611a74565b935083602082028501611beb85611a85565b8060005b85811015611c275784840389528151611c088582611ba3565b9450611c1383611bb7565b925060208a01995050600181019050611bef565b50829750879550505050505092915050565b60006020820190508181036000830152611c538184611bc4565b905092915050565b600081519050919050565b600082825260208201905092915050565b6000819050602082019050919050565b611c90816119c8565b82525050565b600060c083016000830151611cae6000860182611c87565b5060208301518482036020860152611cc68282611aec565b91505060408301518482036040860152611ce08282611aec565b9150506060830151611cf56060860182611c87565b506080830151611d086080860182611b57565b5060a083015184820360a0860152611d208282611aec565b9150508091505092915050565b6000611d398383611c96565b905092915050565b6000602082019050919050565b6000611d5982611c5b565b611d638185611c66565b935083602082028501611d7585611c77565b8060005b85811015611db15784840389528151611d928582611d2d565b9450611d9d83611d41565b925060208a01995050600181019050611d79565b50829750879550505050505092915050565b60006020820190508181036000830152611ddd8184611d4e565b905092915050565b600081519050919050565b600082825260208201905092915050565b6000819050602082019050919050565b6000611e1d8383611c87565b60208301905092915050565b6000602082019050919050565b6000611e4182611de5565b611e4b8185611df0565b9350611e5683611e01565b8060005b83811015611e87578151611e6e8882611e11565b9750611e7983611e29565b925050600181019050611e5a565b5085935050505092915050565b60006020820190508181036000830152611eae8184611e36565b905092915050565b60008060408385031215611ecd57611ecc611a06565b5b6000611edb85828601611a27565b9250506020611eec85828601611a27565b9150509250929050565b6000611f0182611b25565b9050919050565b611f1181611ef6565b82525050565b6000602082019050611f2c6000830184611f08565b92915050565b600080fd5b600080fd5b7f4e487b7100000000000000000000000000000000000000000000000000000000600052604160045260246000fd5b611f7482611adb565b810181811067ffffffffffffffff82111715611f9357611f92611f3c565b5b80604052505050565b6000611fa66119fc565b9050611fb28282611f6b565b919050565b600067ffffffffffffffff821115611fd257611fd1611f3c565b5b611fdb82611adb565b9050602081019050919050565b82818337600083830152505050565b600061200a61200584611fb7565b611f9c565b90508281526020810184848401111561202657612025611f37565b5b612031848285611fe8565b509392505050565b600082601f83011261204e5761204d611f32565b5b813561205e848260208601611ff7565b91505092915050565b6000806040838503121561207e5761207d611a06565b5b600061208c85828601611a27565b925050602083013567ffffffffffffffff8111156120ad576120ac611a0b565b5b6120b985828601612039565b9150509250929050565b6000806000606084860312156120dc576120db611a06565b5b600084013567ffffffffffffffff8111156120fa576120f9611a0b565b5b61210686828701612039565b935050602084013567ffffffffffffffff81111561212757612126611a0b565b5b61213386828701612039565b925050604084013567ffffffffffffffff81111561215457612153611a0b565b5b61216086828701612039565b9150509250925092565b600082825260208201905092915050565b600061218682611a95565b612190818561216a565b93506121a0818560208601611ab1565b6121a981611adb565b840191505092915050565b6121bd81611b45565b82525050565b600060c0820190506121d860008301896119d2565b81810360208301526121ea818861217b565b905081810360408301526121fe818761217b565b905061220d60608301866119d2565b61221a60808301856121b4565b81810360a083015261222c818461217b565b9050979650505050505050565b60008115159050919050565b61224e81612239565b811461225957600080fd5b50565b60008135905061226b81612245565b92915050565b6000806040838503121561228857612287611a06565b5b600061229685828601611a27565b92505060206122a78582860161225c565b9150509250929050565b7f4e487b7100000000000000000000000000000000000000000000000000000000600052602260045260246000fd5b600060028204905060018216806122f857607f821691505b60208210810361230b5761230a6122b1565b5b50919050565b7f4e487b7100000000000000000000000000000000000000000000000000000000600052601160045260246000fd5b600061234b826119c8565b9150612356836119c8565b925082820190508082111561236e5761236d612311565b5b92915050565b7f5573657220756e617574686f72697a6564000000000000000000000000000000600082015250565b60006123aa60118361216a565b91506123b582612374565b602082019050919050565b600060208201905081810360008301526123d98161239d565b9050919050565b7f566f74696e67206973207374696c6c20676f696e67206f6e0000000000000000600082015250565b600061241660188361216a565b9150612421826123e0565b602082019050919050565b6000602082019050818103600083015261244581612409565b9050919050565b7f696e646578206f7574206f6620626f756e640000000000000000000000000000600082015250565b600061248260128361216a565b915061248d8261244c565b602082019050919050565b600060208201905081810360008301526124b181612475565b9050919050565b7f4e487b7100000000000000000000000000000000000000000000000000000000600052601260045260246000fd5b60006124f2826119c8565b91506124fd836119c8565b92508261250d5761250c6124b8565b5b828204905092915050565b6000612523826119c8565b915061252e836119c8565b925082820261253c816119c8565b9150828204841483151761255357612552612311565b5b5092915050565b6000612565826119c8565b9150612570836119c8565b925082820390508181111561258857612587612311565b5b92915050565b7f4e487b7100000000000000000000000000000000000000000000000000000000600052603260045260246000fd5b6000815490506125cc816122e0565b9050919050565b60008190508160005260206000209050919050565b60006020601f8301049050919050565b600082821b905092915050565b6000600883026126357fffffffffffffffffffffffffffffffffffffffffffffffffffffffffffffffff826125f8565b61263f86836125f8565b95508019841693508086168417925050509392505050565b6000819050919050565b600061267c612677612672846119c8565b612657565b6119c8565b9050919050565b6000819050919050565b61269683612661565b6126aa6126a282612683565b848454612605565b825550505050565b600090565b6126bf6126b2565b6126ca81848461268d565b505050565b5b818110156126ee576126e36000826126b7565b6001810190506126d0565b5050565b601f82111561273357612704816125d3565b61270d846125e8565b8101602085101561271c578190505b612730612728856125e8565b8301826126cf565b50505b505050565b600082821c905092915050565b600061275660001984600802612738565b1980831691505092915050565b600061276f8383612745565b9150826002028217905092915050565b81810361278d575050612865565b612796826125bd565b67ffffffffffffffff8111156127af576127ae611f3c565b5b6127b982546122e0565b6127c48282856126f2565b6000601f8311600181146127f357600084156127e1578287015490505b6127eb8582612763565b86555061285e565b601f198416612801876125d3565b965061280c866125d3565b60005b828110156128345784890154825560018201915060018501945060208101905061280f565b86831015612851578489015461284d601f891682612745565b8355505b6001600288020188555050505b5050505050505b565b6000612872826119c8565b91507fffffffffffffffffffffffffffffffffffffffffffffffffffffffffffffffff82036128a4576128a3612311565b5b600182019050919050565b7f4e487b7100000000000000000000000000000000000000000000000000000000600052603160045260246000fd5b6128e782611a95565b67ffffffffffffffff811115612900576128ff611f3c565b5b61290a82546122e0565b6129158282856126f2565b600060209050601f8311600181146129485760008415612936578287015190505b6129408582612763565b8655506129a8565b601f198416612956866125d3565b60005b8281101561297e57848901518255600182019150602085019450602081019050612959565b8683101561299b5784890151612997601f891682612745565b8355505b6001600288020188555050505b505050505050565b7f416c7265616479205265706f7274656400000000000000000000000000000000600082015250565b60006129e660108361216a565b91506129f1826129b0565b602082019050919050565b60006020820190508181036000830152612a15816129d9565b9050919050565b60006060820190508181036000830152612a36818661217b565b90508181036020830152612a4a818561217b565b90508181036040830152612a5e818461217b565b9050949350505050565b7f5573657220616c726561647920566f7465640000000000000000000000000000600082015250565b6000612a9e60128361216a565b9150612aa982612a68565b602082019050919050565b60006020820190508181036000830152612acd81612a91565b9050919050565b7f566f74696e672074696d6520636c6f7365640000000000000000000000000000600082015250565b6000612b0a60128361216a565b9150612b1582612ad4565b602082019050919050565b60006020820190508181036000830152612b3981612afd565b905091905056fea264697066735822122024eb1c8cca03e427075388f82151972113d76787b4c152979784fe236cac475f64736f6c63430008110033",
  "linkReferences": {},
  "deployedLinkReferences": {}
}